{
  "contractName": "Marketplace",
  "abi": [
    {
      "inputs": [
        {
          "internalType": "contract Token",
          "name": "token",
          "type": "address"
        }
      ],
      "payable": false,
      "stateMutability": "nonpayable",
      "type": "constructor"
    },
    {
      "payable": true,
      "stateMutability": "payable",
      "type": "fallback"
    },
    {
      "constant": false,
      "inputs": [
        {
          "internalType": "uint256",
          "name": "amount",
          "type": "uint256"
        }
      ],
      "name": "buyScoreToken",
      "outputs": [],
      "payable": true,
      "stateMutability": "payable",
      "type": "function"
    },
    {
      "constant": false,
      "inputs": [
        {
          "internalType": "uint256",
          "name": "id",
          "type": "uint256"
        },
        {
          "internalType": "uint256",
          "name": "amount",
          "type": "uint256"
        }
      ],
      "name": "buyToken",
      "outputs": [],
      "payable": true,
      "stateMutability": "payable",
      "type": "function"
    },
    {
      "constant": false,
      "inputs": [
        {
          "internalType": "address",
          "name": "_operator",
          "type": "address"
        },
        {
          "internalType": "address",
          "name": "_from",
          "type": "address"
        },
        {
          "internalType": "uint256",
          "name": "_id",
          "type": "uint256"
        },
        {
          "internalType": "uint256",
          "name": "_value",
          "type": "uint256"
        },
        {
          "internalType": "bytes",
          "name": "_data",
          "type": "bytes"
        }
      ],
      "name": "onERC1155Received",
      "outputs": [
        {
          "internalType": "bytes4",
          "name": "",
          "type": "bytes4"
        }
      ],
      "payable": false,
      "stateMutability": "nonpayable",
      "type": "function"
    }
  ],
  "bytecode": "0x608060405234801561001057600080fd5b50604051610aa9380380610aa98339818101604052602081101561003357600080fd5b8101908080519060200190929190505050600073ffffffffffffffffffffffffffffffffffffffff168173ffffffffffffffffffffffffffffffffffffffff1614156100e7576040517f08c379a00000000000000000000000000000000000000000000000000000000081526004018080602001828103825260178152602001807f53656e64696e6720746f207a65726f206164647265737300000000000000000081525060200191505060405180910390fd5b806000806101000a81548173ffffffffffffffffffffffffffffffffffffffff021916908373ffffffffffffffffffffffffffffffffffffffff160217905550600180600060018152602001908152602001600020819055506002600160006002815260200190815260200160002081905550600260016000600381526020019081526020016000208190555060026001600060048152602001908152602001600020819055505061090b8061019e6000396000f3fe6080604052600436106100345760003560e01c8063057466ea14610040578063ec28154014610078578063f23a6e61146100a6575b61003e60016101d2565b005b6100766004803603604081101561005657600080fd5b8101908080359060200190929190803590602001909291905050506103fe565b005b6100a46004803603602081101561008e57600080fd5b81019080803590602001909291905050506101d2565b005b3480156100b257600080fd5b5061017e600480360360a08110156100c957600080fd5b81019080803573ffffffffffffffffffffffffffffffffffffffff169060200190929190803573ffffffffffffffffffffffffffffffffffffffff16906020019092919080359060200190929190803590602001909291908035906020019064010000000081111561013a57600080fd5b82018360208201111561014c57600080fd5b8035906020019184600183028401116401000000008311171561016e57600080fd5b909192939192939050505061082c565b60405180827bffffffffffffffffffffffffffffffffffffffffffffffffffffffff19167bffffffffffffffffffffffffffffffffffffffffffffffffffffffff1916815260200191505060405180910390f35b60003490506000821161024d576040517f08c379a00000000000000000000000000000000000000000000000000000000081526004018080602001828103825260168152602001807f416d6f756e7420302062757953636f7265546f6b656e0000000000000000000081525060200191505060405180910390fd5b6102746001600060018152602001908152602001600020548361085390919063ffffffff16565b8110156102e9576040517f08c379a000000000000000000000000000000000000000000000000000000000815260040180806020018281038252601b8152602001807f6e6f206e65636365737361727920616d6f756e74206f6620657468000000000081525060200191505060405180910390fd5b6000809054906101000a900473ffffffffffffffffffffffffffffffffffffffff1673ffffffffffffffffffffffffffffffffffffffff1663f242432a30336001866040518563ffffffff1660e01b8152600401808573ffffffffffffffffffffffffffffffffffffffff1673ffffffffffffffffffffffffffffffffffffffff1681526020018473ffffffffffffffffffffffffffffffffffffffff1673ffffffffffffffffffffffffffffffffffffffff1681526020018381526020018281526020018060200182810382526000815260200160200195505050505050600060405180830381600087803b1580156103e257600080fd5b505af11580156103f6573d6000803e3d6000fd5b505050505050565b60008111610474576040517f08c379a00000000000000000000000000000000000000000000000000000000081526004018080602001828103825260088152602001807f416d6f756e74203000000000000000000000000000000000000000000000000081525060200191505060405180910390fd5b6104ad61049e60fa61049060018661088790919063ffffffff16565b61085390919063ffffffff16565b8261085390919063ffffffff16565b6000809054906101000a900473ffffffffffffffffffffffffffffffffffffffff1673ffffffffffffffffffffffffffffffffffffffff1662fdd58e3360016040518363ffffffff1660e01b8152600401808373ffffffffffffffffffffffffffffffffffffffff1673ffffffffffffffffffffffffffffffffffffffff1681526020018281526020019250505060206040518083038186803b15801561055357600080fd5b505afa158015610567573d6000803e3d6000fd5b505050506040513d602081101561057d57600080fd5b81019080805190602001909291905050501015610602576040517f08c379a000000000000000000000000000000000000000000000000000000000815260040180806020018281038252601d8152602001807f6e6f206e65636365737361727920616d6f756e74206f662073636f726500000081525060200191505060405180910390fd5b6001821161060f57600080fd5b6005821061061c57600080fd5b6000809054906101000a900473ffffffffffffffffffffffffffffffffffffffff1673ffffffffffffffffffffffffffffffffffffffff1663b5bde5f0838333306040518563ffffffff1660e01b8152600401808581526020018481526020018373ffffffffffffffffffffffffffffffffffffffff1673ffffffffffffffffffffffffffffffffffffffff1681526020018273ffffffffffffffffffffffffffffffffffffffff1673ffffffffffffffffffffffffffffffffffffffff168152602001945050505050600060405180830381600087803b15801561070057600080fd5b505af1158015610714573d6000803e3d6000fd5b505050506000809054906101000a900473ffffffffffffffffffffffffffffffffffffffff1673ffffffffffffffffffffffffffffffffffffffff1663f242432a303385856040518563ffffffff1660e01b8152600401808573ffffffffffffffffffffffffffffffffffffffff1673ffffffffffffffffffffffffffffffffffffffff1681526020018473ffffffffffffffffffffffffffffffffffffffff1673ffffffffffffffffffffffffffffffffffffffff1681526020018381526020018281526020018060200182810382526000815260200160200195505050505050600060405180830381600087803b15801561081057600080fd5b505af1158015610824573d6000803e3d6000fd5b505050505050565b6000604051808061089f603891396038019050604051809103902090509695505050505050565b6000808314156108665760009050610881565b81830290508183828161087557fe5b041461087d57fe5b8090505b92915050565b60008282111561089357fe5b81830390509291505056fe6f6e45524331313535526563656976656428616464726573732c616464726573732c75696e743235362c75696e743235362c627974657329a265627a7a723158206563b227567ffebfe9ab63c014e0197c79a0e9989ce057059a52cb64c2fb7ea164736f6c63430005100032",
  "source": "pragma solidity 0.5.16;\r\n\r\nimport \"./Token.sol\";\r\nimport \"../lib/SafeMath.sol\";\r\n\r\ncontract Marketplace {\r\n  Token private _token;\r\n\r\n  using SafeMath for uint256;\r\n\r\n  mapping(uint256=>uint256) price;\r\n\r\n  constructor(Token token) public{\r\n    require(address(token) != address(0), \"Sending to zero address\");\r\n    _token = token;\r\n    price[1]=1;//score token\r\n    price[2]=2;//attack speed token\r\n    price[3]=2;//movement token\r\n    price[4]=2;//HP token\r\n  }\r\n\r\n  function () external payable{\r\n    buyScoreToken(1);\r\n  }\r\n  function buyScoreToken(uint256 amount) public payable{\r\n    uint256 WeiAmount = msg.value;\r\n    require(amount > 0,\"Amount 0 buyScoreToken\");\r\n    require(WeiAmount >= amount.mul(price[1]),\"no neccessary amount of eth\");\r\n    _token.safeTransferFrom(address(this), msg.sender, 1, amount, \"\");\r\n  }\r\n  function buyToken(uint256 id,uint256 amount) public payable{\r\n    require(amount > 0,\"Amount 0\");\r\n    require(_token.balanceOf(msg.sender, 1) >= amount.mul(id.sub(1).mul(250)),\"no neccessary amount of score\");\r\n    require(id>1);\r\n    require(id<5);\r\n    //umanji score useru\r\n    _token.scoreForToken(id, amount,msg.sender, address(this));\r\n    //daj mu token\r\n    _token.safeTransferFrom(address(this), msg.sender, id, amount, \"\");\r\n  }\r\n\r\n  function onERC1155Received(address _operator, address _from, uint256 _id, uint256 _value, bytes calldata _data) external returns(bytes4){\r\n        return bytes4(keccak256(\"onERC1155Received(address,address,uint256,uint256,bytes)\"));\r\n    }\r\n\r\n\r\n}\r\n",
  "sourcePath": "C:/ETHcontracts/Game/Token Contract/erc-1155/contracts/Marketplace.sol",
  "compiler": {
    "name": "solc",
    "version": "0.5.16+commit.9c3226ce.Emscripten.clang"
  },
  "schemaVersion": "3.3.0",
  "updatedAt": "2020-10-16T12:12:00.899Z",
  "networkType": "ethereum",
  "devdoc": {
    "methods": {}
  },
  "userdoc": {
    "methods": {}
  }
}